{"abi":[{"type":"function","name":"callCustomApi","inputs":[{"name":"url","type":"string","internalType":"string"},{"name":"method","type":"string","internalType":"string"},{"name":"responsePath","type":"string","internalType":"string"},{"name":"responseType","type":"uint8","internalType":"uint8"}],"outputs":[{"name":"","type":"bytes","internalType":"bytes"}],"stateMutability":"view"},{"type":"function","name":"getBitcoinPrice","inputs":[],"outputs":[{"name":"","type":"uint256","internalType":"uint256"}],"stateMutability":"view"},{"type":"function","name":"getEthereumPrice","inputs":[],"outputs":[{"name":"","type":"uint256","internalType":"uint256"}],"stateMutability":"view"},{"type":"function","name":"getISSPosition","inputs":[],"outputs":[{"name":"","type":"string","internalType":"string"}],"stateMutability":"view"},{"type":"function","name":"getPeopleInSpace","inputs":[],"outputs":[{"name":"","type":"uint256","internalType":"uint256"}],"stateMutability":"view"},{"type":"function","name":"getReserveDummy","inputs":[],"outputs":[{"name":"","type":"uint256","internalType":"uint256"}],"stateMutability":"view"},{"type":"function","name":"getWeather","inputs":[],"outputs":[{"name":"","type":"uint256","internalType":"uint256"}],"stateMutability":"view"},{"type":"function","name":"getWeatherDescription","inputs":[],"outputs":[{"name":"","type":"string","internalType":"string"}],"stateMutability":"view"},{"type":"function","name":"rawApiCall","inputs":[{"name":"data","type":"bytes","internalType":"bytes"}],"outputs":[{"name":"","type":"bytes","internalType":"bytes"}],"stateMutability":"view"}],"bytecode":{"object":"0x608060405234801561000f575f80fd5b506119388061001d5f395ff3fe608060405234801561000f575f80fd5b5060043610610091575f3560e01c806395679d171161006457806395679d171461011f5780639bddd05f1461013d578063b1d129461461015b578063bc67283014610179578063dee74be9146101a957610091565b80631a19c57c1461009557806371257a18146100b35780637e84af96146100e35780638300df4914610101575b5f80fd5b61009d6101c7565b6040516100aa9190610fac565b60405180910390f35b6100cd60048036038101906100c8919061106d565b610362565b6040516100da91906111bb565b60405180910390f35b6100eb610556565b6040516100f89190610fac565b60405180910390f35b61010961070e565b6040516101169190610fac565b60405180910390f35b6101276108c6565b6040516101349190610fac565b60405180910390f35b6101456109ce565b6040516101529190610fac565b60405180910390f35b610163610b86565b604051610170919061122d565b60405180910390f35b610193600480360381019061018e91906112a2565b610d22565b6040516101a091906111bb565b60405180910390f35b6101b1610ddb565b6040516101be919061122d565b60405180910390f35b5f806040518060c0016040528060405180606001604052806035815260200161185f6035913981526020016040518060400160405280600381526020017f4745540000000000000000000000000000000000000000000000000000000000815250815260200160405180602001604052805f815250815260200160405180602001604052805f8152508152602001604051806060016040528060218152602001611817602191398152602001600160ff1681525090505f8060aa73ffffffffffffffffffffffffffffffffffffffff16836040516020016102a8919061142e565b6040516020818303038152906040526040516102c49190611488565b5f60405180830381855afa9150503d805f81146102fc576040519150601f19603f3d011682016040523d82523d5f602084013e610301565b606091505b509150915081610346576040517f08c379a000000000000000000000000000000000000000000000000000000000815260040161033d906114e8565b60405180910390fd5b8080602001905181019061035a9190611530565b935050505090565b60605f6040518060c001604052808a8a8080601f0160208091040260200160405190810160405280939291908181526020018383808284375f81840152601f19601f82011690508083019250505050505050815260200188888080601f0160208091040260200160405190810160405280939291908181526020018383808284375f81840152601f19601f82011690508083019250505050505050815260200160405180602001604052805f815250815260200160405180602001604052805f815250815260200186868080601f0160208091040260200160405190810160405280939291908181526020018383808284375f81840152601f19601f8201169050808301925050505050505081526020018460ff1681525090505f8060aa73ffffffffffffffffffffffffffffffffffffffff16836040516020016104a7919061142e565b6040516020818303038152906040526040516104c39190611488565b5f60405180830381855afa9150503d805f81146104fb576040519150601f19603f3d011682016040523d82523d5f602084013e610500565b606091505b509150915081610545576040517f08c379a000000000000000000000000000000000000000000000000000000000815260040161053c906114e8565b60405180910390fd5b809350505050979650505050505050565b5f806040518060c001604052806040518060600160405280602681526020016117a66026913981526020016040518060400160405280600381526020017f4745540000000000000000000000000000000000000000000000000000000000815250815260200160405180602001604052805f815250815260200160405180602001604052805f81525081526020016040518060400160405280600681526020017f6e756d62657200000000000000000000000000000000000000000000000000008152508152602001600160ff1681525090505f8060aa73ffffffffffffffffffffffffffffffffffffffff1683604051602001610654919061142e565b6040516020818303038152906040526040516106709190611488565b5f60405180830381855afa9150503d805f81146106a8576040519150601f19603f3d011682016040523d82523d5f602084013e6106ad565b606091505b5091509150816106f2576040517f08c379a00000000000000000000000000000000000000000000000000000000081526004016106e9906114e8565b60405180910390fd5b808060200190518101906107069190611530565b935050505090565b5f806040518060c001604052806040518060800160405280604b81526020016117cc604b913981526020016040518060400160405280600381526020017f4745540000000000000000000000000000000000000000000000000000000000815250815260200160405180602001604052805f815250815260200160405180602001604052805f81525081526020016040518060400160405280600b81526020017f626974636f696e2e7573640000000000000000000000000000000000000000008152508152602001600160ff1681525090505f8060aa73ffffffffffffffffffffffffffffffffffffffff168360405160200161080c919061142e565b6040516020818303038152906040526040516108289190611488565b5f60405180830381855afa9150503d805f8114610860576040519150601f19603f3d011682016040523d82523d5f602084013e610865565b606091505b5091509150816108aa576040517f08c379a00000000000000000000000000000000000000000000000000000000081526004016108a1906114e8565b60405180910390fd5b808060200190518101906108be9190611530565b935050505090565b5f805f60aa73ffffffffffffffffffffffffffffffffffffffff166040516108ed9061157e565b5f60405180830381855afa9150503d805f8114610925576040519150601f19603f3d011682016040523d82523d5f602084013e61092a565b606091505b50915091508161096f576040517f08c379a0000000000000000000000000000000000000000000000000000000008152600401610966906114e8565b60405180910390fd5b60208151146109b3576040517f08c379a00000000000000000000000000000000000000000000000000000000081526004016109aa906115dc565b60405180910390fd5b808060200190518101906109c79190611530565b9250505090565b5f806040518060c001604052806040518060800160405280604c81526020016118b7604c913981526020016040518060400160405280600381526020017f4745540000000000000000000000000000000000000000000000000000000000815250815260200160405180602001604052805f815250815260200160405180602001604052805f81525081526020016040518060400160405280600c81526020017f657468657265756d2e75736400000000000000000000000000000000000000008152508152602001600160ff1681525090505f8060aa73ffffffffffffffffffffffffffffffffffffffff1683604051602001610acc919061142e565b604051602081830303815290604052604051610ae89190611488565b5f60405180830381855afa9150503d805f8114610b20576040519150601f19603f3d011682016040523d82523d5f602084013e610b25565b606091505b509150915081610b6a576040517f08c379a0000000000000000000000000000000000000000000000000000000008152600401610b61906114e8565b60405180910390fd5b80806020019051810190610b7e9190611530565b935050505090565b60605f6040518060c0016040528060405180606001604052806035815260200161185f6035913981526020016040518060400160405280600381526020017f4745540000000000000000000000000000000000000000000000000000000000815250815260200160405180602001604052805f815250815260200160405180602001604052805f8152508152602001604051806060016040528060238152602001611894602391398152602001600260ff1681525090505f8060aa73ffffffffffffffffffffffffffffffffffffffff1683604051602001610c68919061142e565b604051602081830303815290604052604051610c849190611488565b5f60405180830381855afa9150503d805f8114610cbc576040519150601f19603f3d011682016040523d82523d5f602084013e610cc1565b606091505b509150915081610d06576040517f08c379a0000000000000000000000000000000000000000000000000000000008152600401610cfd906114e8565b60405180910390fd5b80806020019051810190610d1a9190611714565b935050505090565b60605f8060aa73ffffffffffffffffffffffffffffffffffffffff168585604051610d4e92919061178d565b5f60405180830381855afa9150503d805f8114610d86576040519150601f19603f3d011682016040523d82523d5f602084013e610d8b565b606091505b509150915081610dd0576040517f08c379a0000000000000000000000000000000000000000000000000000000008152600401610dc7906114e8565b60405180910390fd5b809250505092915050565b60605f6040518060c001604052806040518060600160405280602781526020016118386027913981526020016040518060400160405280600381526020017f4745540000000000000000000000000000000000000000000000000000000000815250815260200160405180602001604052805f815250815260200160405180602001604052805f81525081526020016040518060400160405280601581526020017f6973735f706f736974696f6e2e6c6174697475646500000000000000000000008152508152602001600260ff1681525090505f8060aa73ffffffffffffffffffffffffffffffffffffffff1683604051602001610eda919061142e565b604051602081830303815290604052604051610ef69190611488565b5f60405180830381855afa9150503d805f8114610f2e576040519150601f19603f3d011682016040523d82523d5f602084013e610f33565b606091505b509150915081610f78576040517f08c379a0000000000000000000000000000000000000000000000000000000008152600401610f6f906114e8565b60405180910390fd5b80806020019051810190610f8c9190611714565b935050505090565b5f819050919050565b610fa681610f94565b82525050565b5f602082019050610fbf5f830184610f9d565b92915050565b5f604051905090565b5f80fd5b5f80fd5b5f80fd5b5f80fd5b5f80fd5b5f8083601f840112610ff757610ff6610fd6565b5b8235905067ffffffffffffffff81111561101457611013610fda565b5b6020830191508360018202830111156110305761102f610fde565b5b9250929050565b5f60ff82169050919050565b61104c81611037565b8114611056575f80fd5b50565b5f8135905061106781611043565b92915050565b5f805f805f805f6080888a03121561108857611087610fce565b5b5f88013567ffffffffffffffff8111156110a5576110a4610fd2565b5b6110b18a828b01610fe2565b9750975050602088013567ffffffffffffffff8111156110d4576110d3610fd2565b5b6110e08a828b01610fe2565b9550955050604088013567ffffffffffffffff81111561110357611102610fd2565b5b61110f8a828b01610fe2565b935093505060606111228a828b01611059565b91505092959891949750929550565b5f81519050919050565b5f82825260208201905092915050565b5f5b8381101561116857808201518184015260208101905061114d565b5f8484015250505050565b5f601f19601f8301169050919050565b5f61118d82611131565b611197818561113b565b93506111a781856020860161114b565b6111b081611173565b840191505092915050565b5f6020820190508181035f8301526111d38184611183565b905092915050565b5f81519050919050565b5f82825260208201905092915050565b5f6111ff826111db565b61120981856111e5565b935061121981856020860161114b565b61122281611173565b840191505092915050565b5f6020820190508181035f83015261124581846111f5565b905092915050565b5f8083601f84011261126257611261610fd6565b5b8235905067ffffffffffffffff81111561127f5761127e610fda565b5b60208301915083600182028301111561129b5761129a610fde565b5b9250929050565b5f80602083850312156112b8576112b7610fce565b5b5f83013567ffffffffffffffff8111156112d5576112d4610fd2565b5b6112e18582860161124d565b92509250509250929050565b5f82825260208201905092915050565b5f611307826111db565b61131181856112ed565b935061132181856020860161114b565b61132a81611173565b840191505092915050565b5f82825260208201905092915050565b5f61134f82611131565b6113598185611335565b935061136981856020860161114b565b61137281611173565b840191505092915050565b61138681611037565b82525050565b5f60c083015f8301518482035f8601526113a682826112fd565b915050602083015184820360208601526113c082826112fd565b915050604083015184820360408601526113da8282611345565b915050606083015184820360608601526113f48282611345565b9150506080830151848203608086015261140e82826112fd565b91505060a083015161142360a086018261137d565b508091505092915050565b5f6020820190508181035f830152611446818461138c565b905092915050565b5f81905092915050565b5f61146282611131565b61146c818561144e565b935061147c81856020860161114b565b80840191505092915050565b5f6114938284611458565b915081905092915050565b7f4150495f43414c4c206661696c656400000000000000000000000000000000005f82015250565b5f6114d2600f836111e5565b91506114dd8261149e565b602082019050919050565b5f6020820190508181035f8301526114ff816114c6565b9050919050565b61150f81610f94565b8114611519575f80fd5b50565b5f8151905061152a81611506565b92915050565b5f6020828403121561154557611544610fce565b5b5f6115528482850161151c565b91505092915050565b50565b5f6115695f8361144e565b91506115748261155b565b5f82019050919050565b5f6115888261155e565b9150819050919050565b7f756e6578706563746564206f7574707574206c656e67746800000000000000005f82015250565b5f6115c66018836111e5565b91506115d182611592565b602082019050919050565b5f6020820190508181035f8301526115f3816115ba565b9050919050565b5f80fd5b7f4e487b71000000000000000000000000000000000000000000000000000000005f52604160045260245ffd5b61163482611173565b810181811067ffffffffffffffff82111715611653576116526115fe565b5b80604052505050565b5f611665610fc5565b9050611671828261162b565b919050565b5f67ffffffffffffffff8211156116905761168f6115fe565b5b61169982611173565b9050602081019050919050565b5f6116b86116b384611676565b61165c565b9050828152602081018484840111156116d4576116d36115fa565b5b6116df84828561114b565b509392505050565b5f82601f8301126116fb576116fa610fd6565b5b815161170b8482602086016116a6565b91505092915050565b5f6020828403121561172957611728610fce565b5b5f82015167ffffffffffffffff81111561174657611745610fd2565b5b611752848285016116e7565b91505092915050565b828183375f83830152505050565b5f611774838561144e565b935061178183858461175b565b82840190509392505050565b5f611799828486611769565b9150819050939250505056fe687474703a2f2f6170692e6f70656e2d6e6f746966792e6f72672f617374726f732e6a736f6e68747470733a2f2f6170692e636f696e6765636b6f2e636f6d2f6170692f76332f73696d706c652f70726963653f6964733d626974636f696e2676735f63757272656e636965733d75736470726f706572746965732e706572696f64735b305d2e74656d7065726174757265687474703a2f2f6170692e6f70656e2d6e6f746966792e6f72672f6973732d6e6f772e6a736f6e68747470733a2f2f6170692e776561746865722e676f762f67726964706f696e74732f544f502f33312c38302f666f72656361737470726f706572746965732e706572696f64735b305d2e73686f7274466f72656361737468747470733a2f2f6170692e636f696e6765636b6f2e636f6d2f6170692f76332f73696d706c652f70726963653f6964733d657468657265756d2676735f63757272656e636965733d757364a2646970667358221220b2b7e31ebede736a60acfe07feb8bf289f4c2ab0e9014fee8b7b7673e616fea564736f6c63430008180033","linkReferences":{}},"methodIdentifiers":{"callCustomApi(string,string,string,uint8)":"71257a18","getBitcoinPrice()":"8300df49","getEthereumPrice()":"9bddd05f","getISSPosition()":"dee74be9","getPeopleInSpace()":"7e84af96","getReserveDummy()":"95679d17","getWeather()":"1a19c57c","getWeatherDescription()":"b1d12946","rawApiCall(bytes)":"bc672830"},"id":0}