{"abi":[{"type":"function","name":"getReserve","inputs":[],"outputs":[{"name":"","type":"uint256","internalType":"uint256"}],"stateMutability":"view"}],"bytecode":{"object":"0x608060405234801561000f575f80fd5b506105058061001d5f395ff3fe608060405234801561000f575f80fd5b5060043610610029575f3560e01c806359bf5d391461002d575b5f80fd5b61003561004b565b6040516100429190610210565b60405180910390f35b5f8060405180608001604052806040518060400160405280600c81526020017f474f4c445f52455345525645000000000000000000000000000000000000000081525081526020016040518060400160405280601581526020017f7b227661756c744964223a225641554c545f31227d000000000000000000000081525081526020016040518060400160405280600781526020017f72657365727665000000000000000000000000000000000000000000000000008152508152602001600160ff1681525090505f8060aa73ffffffffffffffffffffffffffffffffffffffff168360405160200161013e919061038e565b60405160208183030381529060405260405161015a91906103e8565b5f60405180830381855afa9150503d805f8114610192576040519150601f19603f3d011682016040523d82523d5f602084013e610197565b606091505b5091509150816101dc576040517f08c379a00000000000000000000000000000000000000000000000000000000081526004016101d390610458565b60405180910390fd5b808060200190518101906101f091906104a4565b935050505090565b5f819050919050565b61020a816101f8565b82525050565b5f6020820190506102235f830184610201565b92915050565b5f81519050919050565b5f82825260208201905092915050565b5f5b83811015610260578082015181840152602081019050610245565b5f8484015250505050565b5f601f19601f8301169050919050565b5f61028582610229565b61028f8185610233565b935061029f818560208601610243565b6102a88161026b565b840191505092915050565b5f81519050919050565b5f82825260208201905092915050565b5f6102d7826102b3565b6102e181856102bd565b93506102f1818560208601610243565b6102fa8161026b565b840191505092915050565b5f60ff82169050919050565b61031a81610305565b82525050565b5f608083015f8301518482035f86015261033a828261027b565b9150506020830151848203602086015261035482826102cd565b9150506040830151848203604086015261036e828261027b565b91505060608301516103836060860182610311565b508091505092915050565b5f6020820190508181035f8301526103a68184610320565b905092915050565b5f81905092915050565b5f6103c2826102b3565b6103cc81856103ae565b93506103dc818560208601610243565b80840191505092915050565b5f6103f382846103b8565b915081905092915050565b5f82825260208201905092915050565b7f4150495f43414c4c5f4641494c454400000000000000000000000000000000005f82015250565b5f610442600f836103fe565b915061044d8261040e565b602082019050919050565b5f6020820190508181035f83015261046f81610436565b9050919050565b5f80fd5b610483816101f8565b811461048d575f80fd5b50565b5f8151905061049e8161047a565b92915050565b5f602082840312156104b9576104b8610476565b5b5f6104c684828501610490565b9150509291505056fea264697066735822122004bce803532b3267130bb05ea80ce223d672c0b8108b5e7681e02d373d697e6164736f6c63430008180033","linkReferences":{}},"methodIdentifiers":{"getReserve()":"59bf5d39"},"id":20}