{"abi":[{"type":"function","name":"callCustomApi","inputs":[{"name":"url","type":"string","internalType":"string"},{"name":"method","type":"string","internalType":"string"},{"name":"responsePath","type":"string","internalType":"string"},{"name":"responseType","type":"uint8","internalType":"uint8"}],"outputs":[{"name":"","type":"bytes","internalType":"bytes"}],"stateMutability":"view"},{"type":"function","name":"getBitcoinPrice","inputs":[],"outputs":[{"name":"","type":"uint256","internalType":"uint256"}],"stateMutability":"view"},{"type":"function","name":"getGoldPrice","inputs":[],"outputs":[{"name":"","type":"uint256","internalType":"uint256"}],"stateMutability":"view"},{"type":"function","name":"getRandomJoke","inputs":[],"outputs":[{"name":"","type":"string","internalType":"string"}],"stateMutability":"view"},{"type":"function","name":"getReserveDummy","inputs":[],"outputs":[{"name":"","type":"uint256","internalType":"uint256"}],"stateMutability":"view"},{"type":"function","name":"getWeather","inputs":[],"outputs":[{"name":"","type":"uint256","internalType":"uint256"}],"stateMutability":"view"},{"type":"function","name":"getWeatherDescription","inputs":[],"outputs":[{"name":"","type":"string","internalType":"string"}],"stateMutability":"view"},{"type":"function","name":"rawApiCall","inputs":[{"name":"data","type":"bytes","internalType":"bytes"}],"outputs":[{"name":"","type":"bytes","internalType":"bytes"}],"stateMutability":"view"}],"bytecode":{"object":"0x608060405234801561000f575f80fd5b506116f98061001d5f395ff3fe608060405234801561000f575f80fd5b5060043610610086575f3560e01c806395679d171161005957806395679d1714610114578063b1d1294614610132578063bc67283014610150578063da6bae101461018057610086565b80630fe9bb761461008a5780631a19c57c146100a857806371257a18146100c65780638300df49146100f6575b5f80fd5b61009261019e565b60405161009f9190610e3d565b60405180910390f35b6100b0610357565b6040516100bd9190610e75565b60405180910390f35b6100e060048036038101906100db9190610f36565b6104f2565b6040516100ed919061104c565b60405180910390f35b6100fe6106e6565b60405161010b9190610e75565b60405180910390f35b61011c61089e565b6040516101299190610e75565b60405180910390f35b61013a6109a6565b6040516101479190610e3d565b60405180910390f35b61016a600480360381019061016591906110c1565b610b42565b604051610177919061104c565b60405180910390f35b610188610bfb565b6040516101959190610e75565b60405180910390f35b60605f6040518060c001604052806040518060600160405280603181526020016116176031913981526020016040518060400160405280600381526020017f4745540000000000000000000000000000000000000000000000000000000000815250815260200160405180602001604052805f815250815260200160405180602001604052805f81525081526020016040518060400160405280600581526020017f73657475700000000000000000000000000000000000000000000000000000008152508152602001600260ff1681525090505f8060aa73ffffffffffffffffffffffffffffffffffffffff168360405160200161029d919061124d565b6040516020818303038152906040526040516102b991906112a7565b5f60405180830381855afa9150503d805f81146102f1576040519150601f19603f3d011682016040523d82523d5f602084013e6102f6565b606091505b50915091508161033b576040517f08c379a000000000000000000000000000000000000000000000000000000000815260040161033290611307565b60405180910390fd5b8080602001905181019061034f919061143f565b935050505090565b5f806040518060c001604052806040518060600160405280603581526020016116486035913981526020016040518060400160405280600381526020017f4745540000000000000000000000000000000000000000000000000000000000815250815260200160405180602001604052805f815250815260200160405180602001604052805f81525081526020016040518060600160405280602181526020016115c5602191398152602001600160ff1681525090505f8060aa73ffffffffffffffffffffffffffffffffffffffff1683604051602001610438919061124d565b60405160208183030381529060405260405161045491906112a7565b5f60405180830381855afa9150503d805f811461048c576040519150601f19603f3d011682016040523d82523d5f602084013e610491565b606091505b5091509150816104d6576040517f08c379a00000000000000000000000000000000000000000000000000000000081526004016104cd90611307565b60405180910390fd5b808060200190518101906104ea91906114b0565b935050505090565b60605f6040518060c001604052808a8a8080601f0160208091040260200160405190810160405280939291908181526020018383808284375f81840152601f19601f82011690508083019250505050505050815260200188888080601f0160208091040260200160405190810160405280939291908181526020018383808284375f81840152601f19601f82011690508083019250505050505050815260200160405180602001604052805f815250815260200160405180602001604052805f815250815260200186868080601f0160208091040260200160405190810160405280939291908181526020018383808284375f81840152601f19601f8201169050808301925050505050505081526020018460ff1681525090505f8060aa73ffffffffffffffffffffffffffffffffffffffff1683604051602001610637919061124d565b60405160208183030381529060405260405161065391906112a7565b5f60405180830381855afa9150503d805f811461068b576040519150601f19603f3d011682016040523d82523d5f602084013e610690565b606091505b5091509150816106d5576040517f08c379a00000000000000000000000000000000000000000000000000000000081526004016106cc90611307565b60405180910390fd5b809350505050979650505050505050565b5f806040518060c001604052806040518060600160405280603181526020016115e66031913981526020016040518060400160405280600381526020017f4745540000000000000000000000000000000000000000000000000000000000815250815260200160405180602001604052805f815250815260200160405180602001604052805f81525081526020016040518060400160405280601281526020017f6270692e5553442e726174655f666c6f617400000000000000000000000000008152508152602001600160ff1681525090505f8060aa73ffffffffffffffffffffffffffffffffffffffff16836040516020016107e4919061124d565b60405160208183030381529060405260405161080091906112a7565b5f60405180830381855afa9150503d805f8114610838576040519150601f19603f3d011682016040523d82523d5f602084013e61083d565b606091505b509150915081610882576040517f08c379a000000000000000000000000000000000000000000000000000000000815260040161087990611307565b60405180910390fd5b8080602001905181019061089691906114b0565b935050505090565b5f805f60aa73ffffffffffffffffffffffffffffffffffffffff166040516108c5906114fe565b5f60405180830381855afa9150503d805f81146108fd576040519150601f19603f3d011682016040523d82523d5f602084013e610902565b606091505b509150915081610947576040517f08c379a000000000000000000000000000000000000000000000000000000000815260040161093e90611307565b60405180910390fd5b602081511461098b576040517f08c379a00000000000000000000000000000000000000000000000000000000081526004016109829061155c565b60405180910390fd5b8080602001905181019061099f91906114b0565b9250505090565b60605f6040518060c001604052806040518060600160405280603581526020016116486035913981526020016040518060400160405280600381526020017f4745540000000000000000000000000000000000000000000000000000000000815250815260200160405180602001604052805f815250815260200160405180602001604052805f81525081526020016040518060600160405280602381526020016116a1602391398152602001600260ff1681525090505f8060aa73ffffffffffffffffffffffffffffffffffffffff1683604051602001610a88919061124d565b604051602081830303815290604052604051610aa491906112a7565b5f60405180830381855afa9150503d805f8114610adc576040519150601f19603f3d011682016040523d82523d5f602084013e610ae1565b606091505b509150915081610b26576040517f08c379a0000000000000000000000000000000000000000000000000000000008152600401610b1d90611307565b60405180910390fd5b80806020019051810190610b3a919061143f565b935050505090565b60605f8060aa73ffffffffffffffffffffffffffffffffffffffff168585604051610b6e9291906115ac565b5f60405180830381855afa9150503d805f8114610ba6576040519150601f19603f3d011682016040523d82523d5f602084013e610bab565b606091505b509150915081610bf0576040517f08c379a0000000000000000000000000000000000000000000000000000000008152600401610be790611307565b60405180910390fd5b809250505092915050565b5f806040518060c0016040528060405180606001604052806024815260200161167d6024913981526020016040518060400160405280600381526020017f4745540000000000000000000000000000000000000000000000000000000000815250815260200160405180602001604052805f815250815260200160405180602001604052805f81525081526020016040518060400160405280600581526020017f70726963650000000000000000000000000000000000000000000000000000008152508152602001600160ff1681525090505f8060aa73ffffffffffffffffffffffffffffffffffffffff1683604051602001610cf9919061124d565b604051602081830303815290604052604051610d1591906112a7565b5f60405180830381855afa9150503d805f8114610d4d576040519150601f19603f3d011682016040523d82523d5f602084013e610d52565b606091505b509150915081610d97576040517f08c379a0000000000000000000000000000000000000000000000000000000008152600401610d8e90611307565b60405180910390fd5b80806020019051810190610dab91906114b0565b935050505090565b5f81519050919050565b5f82825260208201905092915050565b5f5b83811015610dea578082015181840152602081019050610dcf565b5f8484015250505050565b5f601f19601f8301169050919050565b5f610e0f82610db3565b610e198185610dbd565b9350610e29818560208601610dcd565b610e3281610df5565b840191505092915050565b5f6020820190508181035f830152610e558184610e05565b905092915050565b5f819050919050565b610e6f81610e5d565b82525050565b5f602082019050610e885f830184610e66565b92915050565b5f604051905090565b5f80fd5b5f80fd5b5f80fd5b5f80fd5b5f80fd5b5f8083601f840112610ec057610ebf610e9f565b5b8235905067ffffffffffffffff811115610edd57610edc610ea3565b5b602083019150836001820283011115610ef957610ef8610ea7565b5b9250929050565b5f60ff82169050919050565b610f1581610f00565b8114610f1f575f80fd5b50565b5f81359050610f3081610f0c565b92915050565b5f805f805f805f6080888a031215610f5157610f50610e97565b5b5f88013567ffffffffffffffff811115610f6e57610f6d610e9b565b5b610f7a8a828b01610eab565b9750975050602088013567ffffffffffffffff811115610f9d57610f9c610e9b565b5b610fa98a828b01610eab565b9550955050604088013567ffffffffffffffff811115610fcc57610fcb610e9b565b5b610fd88a828b01610eab565b93509350506060610feb8a828b01610f22565b91505092959891949750929550565b5f81519050919050565b5f82825260208201905092915050565b5f61101e82610ffa565b6110288185611004565b9350611038818560208601610dcd565b61104181610df5565b840191505092915050565b5f6020820190508181035f8301526110648184611014565b905092915050565b5f8083601f84011261108157611080610e9f565b5b8235905067ffffffffffffffff81111561109e5761109d610ea3565b5b6020830191508360018202830111156110ba576110b9610ea7565b5b9250929050565b5f80602083850312156110d7576110d6610e97565b5b5f83013567ffffffffffffffff8111156110f4576110f3610e9b565b5b6111008582860161106c565b92509250509250929050565b5f82825260208201905092915050565b5f61112682610db3565b611130818561110c565b9350611140818560208601610dcd565b61114981610df5565b840191505092915050565b5f82825260208201905092915050565b5f61116e82610ffa565b6111788185611154565b9350611188818560208601610dcd565b61119181610df5565b840191505092915050565b6111a581610f00565b82525050565b5f60c083015f8301518482035f8601526111c5828261111c565b915050602083015184820360208601526111df828261111c565b915050604083015184820360408601526111f98282611164565b915050606083015184820360608601526112138282611164565b9150506080830151848203608086015261122d828261111c565b91505060a083015161124260a086018261119c565b508091505092915050565b5f6020820190508181035f83015261126581846111ab565b905092915050565b5f81905092915050565b5f61128182610ffa565b61128b818561126d565b935061129b818560208601610dcd565b80840191505092915050565b5f6112b28284611277565b915081905092915050565b7f4150495f43414c4c206661696c656400000000000000000000000000000000005f82015250565b5f6112f1600f83610dbd565b91506112fc826112bd565b602082019050919050565b5f6020820190508181035f83015261131e816112e5565b9050919050565b5f80fd5b7f4e487b71000000000000000000000000000000000000000000000000000000005f52604160045260245ffd5b61135f82610df5565b810181811067ffffffffffffffff8211171561137e5761137d611329565b5b80604052505050565b5f611390610e8e565b905061139c8282611356565b919050565b5f67ffffffffffffffff8211156113bb576113ba611329565b5b6113c482610df5565b9050602081019050919050565b5f6113e36113de846113a1565b611387565b9050828152602081018484840111156113ff576113fe611325565b5b61140a848285610dcd565b509392505050565b5f82601f83011261142657611425610e9f565b5b81516114368482602086016113d1565b91505092915050565b5f6020828403121561145457611453610e97565b5b5f82015167ffffffffffffffff81111561147157611470610e9b565b5b61147d84828501611412565b91505092915050565b61148f81610e5d565b8114611499575f80fd5b50565b5f815190506114aa81611486565b92915050565b5f602082840312156114c5576114c4610e97565b5b5f6114d28482850161149c565b91505092915050565b50565b5f6114e95f8361126d565b91506114f4826114db565b5f82019050919050565b5f611508826114de565b9150819050919050565b7f756e6578706563746564206f7574707574206c656e67746800000000000000005f82015250565b5f611546601883610dbd565b915061155182611512565b602082019050919050565b5f6020820190508181035f8301526115738161153a565b9050919050565b828183375f83830152505050565b5f611593838561126d565b93506115a083858461157a565b82840190509392505050565b5f6115b8828486611588565b9150819050939250505056fe70726f706572746965732e706572696f64735b305d2e74656d706572617475726568747470733a2f2f6170692e636f696e6465736b2e636f6d2f76312f6270692f63757272656e7470726963652e6a736f6e68747470733a2f2f6f6666696369616c2d6a6f6b652d6170692e61707073706f742e636f6d2f72616e646f6d5f6a6f6b6568747470733a2f2f6170692e776561746865722e676f762f67726964706f696e74732f544f502f33312c38302f666f72656361737468747470733a2f2f6170692e6d6574616c732e6c6976652f76312f73706f742f676f6c6470726f706572746965732e706572696f64735b305d2e73686f7274466f726563617374a26469706673582212206277cbe3f3331953acd2f78e472da4082baf56767f956a7b9c4048cfabfce79e64736f6c63430008180033","linkReferences":{}},"methodIdentifiers":{"callCustomApi(string,string,string,uint8)":"71257a18","getBitcoinPrice()":"8300df49","getGoldPrice()":"da6bae10","getRandomJoke()":"0fe9bb76","getReserveDummy()":"95679d17","getWeather()":"1a19c57c","getWeatherDescription()":"b1d12946","rawApiCall(bytes)":"bc672830"},"id":19}